{
  "contractName": "dcheck",
  "abi": [
    {
      "inputs": [
        {
          "internalType": "address",
          "name": "_instance",
          "type": "address"
        }
      ],
      "stateMutability": "nonpayable",
      "type": "constructor"
    },
    {
      "anonymous": false,
      "inputs": [
        {
          "indexed": false,
          "internalType": "address",
          "name": "",
          "type": "address"
        },
        {
          "components": [
            {
              "internalType": "string",
              "name": "employeename",
              "type": "string"
            },
            {
              "internalType": "string",
              "name": "employername",
              "type": "string"
            },
            {
              "internalType": "string",
              "name": "employeedesignation",
              "type": "string"
            },
            {
              "internalType": "string",
              "name": "employeetenure",
              "type": "string"
            }
          ],
          "indexed": false,
          "internalType": "struct dcheck.employeeinfo",
          "name": "",
          "type": "tuple"
        }
      ],
      "name": "employeeadded",
      "type": "event"
    },
    {
      "anonymous": false,
      "inputs": [
        {
          "indexed": false,
          "internalType": "address",
          "name": "",
          "type": "address"
        },
        {
          "components": [
            {
              "internalType": "string",
              "name": "employeename",
              "type": "string"
            },
            {
              "internalType": "string",
              "name": "employername",
              "type": "string"
            },
            {
              "internalType": "string",
              "name": "employeedesignation",
              "type": "string"
            },
            {
              "internalType": "string",
              "name": "employeetenure",
              "type": "string"
            }
          ],
          "indexed": false,
          "internalType": "struct dcheck.employeeinfo",
          "name": "",
          "type": "tuple"
        }
      ],
      "name": "searchemployee",
      "type": "event"
    },
    {
      "anonymous": false,
      "inputs": [
        {
          "indexed": false,
          "internalType": "address",
          "name": "",
          "type": "address"
        },
        {
          "components": [
            {
              "internalType": "string",
              "name": "studentName",
              "type": "string"
            },
            {
              "internalType": "string",
              "name": "program",
              "type": "string"
            },
            {
              "internalType": "string",
              "name": "duration",
              "type": "string"
            },
            {
              "internalType": "string",
              "name": "graduationtime",
              "type": "string"
            }
          ],
          "indexed": false,
          "internalType": "struct dcheck.studentinfo",
          "name": "",
          "type": "tuple"
        }
      ],
      "name": "searchstudent",
      "type": "event"
    },
    {
      "anonymous": false,
      "inputs": [
        {
          "indexed": false,
          "internalType": "address",
          "name": "",
          "type": "address"
        },
        {
          "components": [
            {
              "internalType": "string",
              "name": "studentName",
              "type": "string"
            },
            {
              "internalType": "string",
              "name": "program",
              "type": "string"
            },
            {
              "internalType": "string",
              "name": "duration",
              "type": "string"
            },
            {
              "internalType": "string",
              "name": "graduationtime",
              "type": "string"
            }
          ],
          "indexed": false,
          "internalType": "struct dcheck.studentinfo",
          "name": "",
          "type": "tuple"
        }
      ],
      "name": "studentadded",
      "type": "event"
    },
    {
      "inputs": [
        {
          "internalType": "string",
          "name": "_employeename",
          "type": "string"
        },
        {
          "internalType": "string",
          "name": "_employername",
          "type": "string"
        },
        {
          "internalType": "string",
          "name": "_employeedesignation",
          "type": "string"
        },
        {
          "internalType": "string",
          "name": "_employeetenure",
          "type": "string"
        }
      ],
      "name": "addemployeeinfo",
      "outputs": [],
      "stateMutability": "nonpayable",
      "type": "function"
    },
    {
      "inputs": [
        {
          "internalType": "uint256",
          "name": "empKey",
          "type": "uint256"
        }
      ],
      "name": "findemployee",
      "outputs": [
        {
          "components": [
            {
              "internalType": "string",
              "name": "employeename",
              "type": "string"
            },
            {
              "internalType": "string",
              "name": "employername",
              "type": "string"
            },
            {
              "internalType": "string",
              "name": "employeedesignation",
              "type": "string"
            },
            {
              "internalType": "string",
              "name": "employeetenure",
              "type": "string"
            }
          ],
          "internalType": "struct dcheck.employeeinfo",
          "name": "",
          "type": "tuple"
        }
      ],
      "stateMutability": "nonpayable",
      "type": "function"
    },
    {
      "inputs": [
        {
          "internalType": "string",
          "name": "_studentName",
          "type": "string"
        },
        {
          "internalType": "string",
          "name": "_program",
          "type": "string"
        },
        {
          "internalType": "string",
          "name": "_duration",
          "type": "string"
        },
        {
          "internalType": "string",
          "name": "_graduationtime",
          "type": "string"
        }
      ],
      "name": "addstudent",
      "outputs": [],
      "stateMutability": "nonpayable",
      "type": "function"
    },
    {
      "inputs": [
        {
          "internalType": "uint256",
          "name": "studentId",
          "type": "uint256"
        }
      ],
      "name": "findstudent",
      "outputs": [
        {
          "components": [
            {
              "internalType": "string",
              "name": "studentName",
              "type": "string"
            },
            {
              "internalType": "string",
              "name": "program",
              "type": "string"
            },
            {
              "internalType": "string",
              "name": "duration",
              "type": "string"
            },
            {
              "internalType": "string",
              "name": "graduationtime",
              "type": "string"
            }
          ],
          "internalType": "struct dcheck.studentinfo",
          "name": "",
          "type": "tuple"
        }
      ],
      "stateMutability": "nonpayable",
      "type": "function"
    }
  ],
  "bytecode": "0x6080604052600060035560006005553480156200001b57600080fd5b50604051620019c7380380620019c78339818101604052810190620000419190620000e0565b806000806101000a81548173ffffffffffffffffffffffffffffffffffffffff021916908373ffffffffffffffffffffffffffffffffffffffff16021790555033600160006101000a81548173ffffffffffffffffffffffffffffffffffffffff021916908373ffffffffffffffffffffffffffffffffffffffff160217905550506200015a565b600081519050620000da8162000140565b92915050565b600060208284031215620000f357600080fd5b60006200010384828501620000c9565b91505092915050565b6000620001198262000120565b9050919050565b600073ffffffffffffffffffffffffffffffffffffffff82169050919050565b6200014b816200010c565b81146200015757600080fd5b50565b61185d806200016a6000396000f3fe608060405234801561001057600080fd5b506004361061004c5760003560e01c80631cc633a714610051578063619cc8781461006d5780636eacc4bb1461009d578063eebd4c58146100cd575b600080fd5b61006b6004803603810190610066919061107d565b6100e9565b005b61008760048036038101906100829190611140565b610340565b604051610094919061161b565b60405180910390f35b6100b760048036038101906100b29190611140565b61080d565b6040516100c4919061163d565b60405180910390f35b6100e760048036038101906100e2919061107d565b610cda565b005b600084511180156100fb575060008351115b8015610108575060008251115b8015610115575060008151115b610154576040517f08c379a000000000000000000000000000000000000000000000000000000000815260040161014b906115fb565b60405180910390fd5b60405180608001604052808581526020018481526020018381526020018281525060026000600354815260200190815260200160002060008201518160000190805190602001906101a6929190610ec6565b5060208201518160010190805190602001906101c3929190610ec6565b5060408201518160020190805190602001906101e0929190610ec6565b5060608201518160030190805190602001906101fd929190610ec6565b5090505060008054906101000a900473ffffffffffffffffffffffffffffffffffffffff1673ffffffffffffffffffffffffffffffffffffffff166323b872dd600160009054906101000a900473ffffffffffffffffffffffffffffffffffffffff1633670de0b6b3a76400006040518463ffffffff1660e01b8152600401610288939291906115a4565b602060405180830381600087803b1580156102a257600080fd5b505af11580156102b6573d6000803e3d6000fd5b505050506040513d601f19601f820116820180604052508101906102da9190611054565b507f6d77abb45652952075dd0a8b34aa393782df2005141f8b59de4c3a12a45c026c33600260006003548152602001908152602001600020604051610320929190611544565b60405180910390a160036000815480929190600101919050555050505050565b610348610f54565b674563918244f4000060008054906101000a900473ffffffffffffffffffffffffffffffffffffffff1673ffffffffffffffffffffffffffffffffffffffff166370a08231336040518263ffffffff1660e01b81526004016103aa91906114f2565b60206040518083038186803b1580156103c257600080fd5b505afa1580156103d6573d6000803e3d6000fd5b505050506040513d601f19601f820116820180604052508101906103fa9190611169565b101561043b576040517f08c379a0000000000000000000000000000000000000000000000000000000008152600401610432906115db565b60405180910390fd5b60008054906101000a900473ffffffffffffffffffffffffffffffffffffffff1673ffffffffffffffffffffffffffffffffffffffff166323b872dd33600160009054906101000a900473ffffffffffffffffffffffffffffffffffffffff16674563918244f400006040518463ffffffff1660e01b81526004016104c29392919061150d565b602060405180830381600087803b1580156104dc57600080fd5b505af11580156104f0573d6000803e3d6000fd5b505050506040513d601f19601f820116820180604052508101906105149190611054565b507f8d20968e44efaca22c53ab494d4f3ff979ef0268bc807c31b1fcf55bea4945c23360026000858152602001908152602001600020604051610558929190611544565b60405180910390a160026000838152602001908152602001600020604051806080016040529081600082018054600181600116156101000203166002900480601f0160208091040260200160405190810160405280929190818152602001828054600181600116156101000203166002900480156106175780601f106105ec57610100808354040283529160200191610617565b820191906000526020600020905b8154815290600101906020018083116105fa57829003601f168201915b50505050508152602001600182018054600181600116156101000203166002900480601f0160208091040260200160405190810160405280929190818152602001828054600181600116156101000203166002900480156106b95780601f1061068e576101008083540402835291602001916106b9565b820191906000526020600020905b81548152906001019060200180831161069c57829003601f168201915b50505050508152602001600282018054600181600116156101000203166002900480601f01602080910402602001604051908101604052809291908181526020018280546001816001161561010002031660029004801561075b5780601f106107305761010080835404028352916020019161075b565b820191906000526020600020905b81548152906001019060200180831161073e57829003601f168201915b50505050508152602001600382018054600181600116156101000203166002900480601f0160208091040260200160405190810160405280929190818152602001828054600181600116156101000203166002900480156107fd5780601f106107d2576101008083540402835291602001916107fd565b820191906000526020600020905b8154815290600101906020018083116107e057829003601f168201915b5050505050815250509050919050565b610815610f7c565b674563918244f4000060008054906101000a900473ffffffffffffffffffffffffffffffffffffffff1673ffffffffffffffffffffffffffffffffffffffff166370a08231336040518263ffffffff1660e01b815260040161087791906114f2565b60206040518083038186803b15801561088f57600080fd5b505afa1580156108a3573d6000803e3d6000fd5b505050506040513d601f19601f820116820180604052508101906108c79190611169565b1015610908576040517f08c379a00000000000000000000000000000000000000000000000000000000081526004016108ff906115db565b60405180910390fd5b60008054906101000a900473ffffffffffffffffffffffffffffffffffffffff1673ffffffffffffffffffffffffffffffffffffffff166323b872dd33600160009054906101000a900473ffffffffffffffffffffffffffffffffffffffff16674563918244f400006040518463ffffffff1660e01b815260040161098f9392919061150d565b602060405180830381600087803b1580156109a957600080fd5b505af11580156109bd573d6000803e3d6000fd5b505050506040513d601f19601f820116820180604052508101906109e19190611054565b507f681e60d18ce9f780084035133664ed6d267aac39171fb3287f2088146027466e3360046000858152602001908152602001600020604051610a25929190611574565b60405180910390a160046000838152602001908152602001600020604051806080016040529081600082018054600181600116156101000203166002900480601f016020809104026020016040519081016040528092919081815260200182805460018160011615610100020316600290048015610ae45780601f10610ab957610100808354040283529160200191610ae4565b820191906000526020600020905b815481529060010190602001808311610ac757829003601f168201915b50505050508152602001600182018054600181600116156101000203166002900480601f016020809104026020016040519081016040528092919081815260200182805460018160011615610100020316600290048015610b865780601f10610b5b57610100808354040283529160200191610b86565b820191906000526020600020905b815481529060010190602001808311610b6957829003601f168201915b50505050508152602001600282018054600181600116156101000203166002900480601f016020809104026020016040519081016040528092919081815260200182805460018160011615610100020316600290048015610c285780601f10610bfd57610100808354040283529160200191610c28565b820191906000526020600020905b815481529060010190602001808311610c0b57829003601f168201915b50505050508152602001600382018054600181600116156101000203166002900480601f016020809104026020016040519081016040528092919081815260200182805460018160011615610100020316600290048015610cca5780601f10610c9f57610100808354040283529160200191610cca565b820191906000526020600020905b815481529060010190602001808311610cad57829003601f168201915b5050505050815250509050919050565b6040518060800160405280858152602001848152602001838152602001828152506004600060055481526020019081526020016000206000820151816000019080519060200190610d2c929190610ec6565b506020820151816001019080519060200190610d49929190610ec6565b506040820151816002019080519060200190610d66929190610ec6565b506060820151816003019080519060200190610d83929190610ec6565b5090505060008054906101000a900473ffffffffffffffffffffffffffffffffffffffff1673ffffffffffffffffffffffffffffffffffffffff166323b872dd600160009054906101000a900473ffffffffffffffffffffffffffffffffffffffff1633670de0b6b3a76400006040518463ffffffff1660e01b8152600401610e0e939291906115a4565b602060405180830381600087803b158015610e2857600080fd5b505af1158015610e3c573d6000803e3d6000fd5b505050506040513d601f19601f82011682018060405250810190610e609190611054565b507f561d76be058676517679cfdca205f4c515c8049e337818ca46ddbfafbda8719333600460006005548152602001908152602001600020604051610ea6929190611574565b60405180910390a160056000815480929190600101919050555050505050565b828054600181600116156101000203166002900490600052602060002090601f016020900481019282610efc5760008555610f43565b82601f10610f1557805160ff1916838001178555610f43565b82800160010185558215610f43579182015b82811115610f42578251825591602001919060010190610f27565b5b509050610f509190610fa4565b5090565b6040518060800160405280606081526020016060815260200160608152602001606081525090565b6040518060800160405280606081526020016060815260200160608152602001606081525090565b5b80821115610fbd576000816000905550600101610fa5565b5090565b600081519050610fd0816117f9565b92915050565b600082601f830112610fe757600080fd5b8135610ffa610ff582611690565b61165f565b9150808252602083016020830185838301111561101657600080fd5b6110218382846117a4565b50505092915050565b60008135905061103981611810565b92915050565b60008151905061104e81611810565b92915050565b60006020828403121561106657600080fd5b600061107484828501610fc1565b91505092915050565b6000806000806080858703121561109357600080fd5b600085013567ffffffffffffffff8111156110ad57600080fd5b6110b987828801610fd6565b945050602085013567ffffffffffffffff8111156110d657600080fd5b6110e287828801610fd6565b935050604085013567ffffffffffffffff8111156110ff57600080fd5b61110b87828801610fd6565b925050606085013567ffffffffffffffff81111561112857600080fd5b61113487828801610fd6565b91505092959194509250565b60006020828403121561115257600080fd5b60006111608482850161102a565b91505092915050565b60006020828403121561117b57600080fd5b60006111898482850161103f565b91505092915050565b61119b8161174a565b82525050565b6111aa81611702565b82525050565b6111b98161175c565b82525050565b6111c88161176e565b82525050565b60006111d9826116d5565b6111e381856116e0565b93506111f38185602086016117b3565b6111fc816117e8565b840191505092915050565b600081546001811660008114611224576001811461124a5761128e565b607f600283041661123581876116e0565b955060ff19831686526020860193505061128e565b6002820461125881876116e0565b9550611263856116c0565b60005b8281101561128557815481890152600182019150602081019050611266565b80880195505050505b505092915050565b60006112a36014836116f1565b91507f696e737566666963696e65742062616c616e63650000000000000000000000006000830152602082019050919050565b60006112e36019836116f1565b91507f43616e6e6f74207061737320656d70747920737472696e6773000000000000006000830152602082019050919050565b6000608083016000830151848203600086015261133382826111ce565b9150506020830151848203602086015261134d82826111ce565b9150506040830151848203604086015261136782826111ce565b9150506060830151848203606086015261138182826111ce565b9150508091505092915050565b600060808301600080840185830360008701526113ab8382611207565b9250506001840185830360208701526113c48382611207565b9250506002840185830360408701526113dd8382611207565b9250506003840185830360608701526113f68382611207565b925050819250505092915050565b6000608083016000830151848203600086015261142182826111ce565b9150506020830151848203602086015261143b82826111ce565b9150506040830151848203604086015261145582826111ce565b9150506060830151848203606086015261146f82826111ce565b9150508091505092915050565b600060808301600080840185830360008701526114998382611207565b9250506001840185830360208701526114b28382611207565b9250506002840185830360408701526114cb8382611207565b9250506003840185830360608701526114e48382611207565b925050819250505092915050565b60006020820190506115076000830184611192565b92915050565b60006060820190506115226000830186611192565b61152f60208301856111a1565b61153c60408301846111bf565b949350505050565b60006040820190506115596000830185611192565b818103602083015261156b818461138e565b90509392505050565b60006040820190506115896000830185611192565b818103602083015261159b818461147c565b90509392505050565b60006060820190506115b960008301866111a1565b6115c66020830185611192565b6115d360408301846111b0565b949350505050565b600060208201905081810360008301526115f481611296565b9050919050565b60006020820190508181036000830152611614816112d6565b9050919050565b600060208201905081810360008301526116358184611316565b905092915050565b600060208201905081810360008301526116578184611404565b905092915050565b6000604051905081810181811067ffffffffffffffff82111715611686576116856117e6565b5b8060405250919050565b600067ffffffffffffffff8211156116ab576116aa6117e6565b5b601f19601f8301169050602081019050919050565b60008190508160005260206000209050919050565b600081519050919050565b600082825260208201905092915050565b600082825260208201905092915050565b600061170d82611720565b9050919050565b60008115159050919050565b600073ffffffffffffffffffffffffffffffffffffffff82169050919050565b6000819050919050565b600061175582611780565b9050919050565b600061176782611740565b9050919050565b600061177982611740565b9050919050565b600061178b82611792565b9050919050565b600061179d82611720565b9050919050565b82818337600083830152505050565b60005b838110156117d15780820151818401526020810190506117b6565b838111156117e0576000848401525b50505050565bfe5b6000601f19601f8301169050919050565b61180281611714565b811461180d57600080fd5b50565b61181981611740565b811461182457600080fd5b5056fea264697066735822122030e4793912887b9cd3f967330a1ae59d62bea62e6226b21ac288d3af6631985e64736f6c63430007040033",
  "immutableReferences": {},
  "source": "\n// \"SPDX-License-Identifier: UNLICENSED\"\n\npragma solidity ^0.7.4;\npragma experimental ABIEncoderV2;\nimport \"./dCheckToken.sol\"; \n\n\ncontract dcheck{\n    \n    dCheckToken instance; \n    address  owner; \n    \n    constructor ( address _instance ){\n        instance = dCheckToken(_instance);\n        owner = msg.sender;}\n    \n// ********Mappings *********\n\n    \n    // Employee mapping \n    mapping (uint => employeeinfo) employee;\n    uint employeeKey= 0;\n    \n    // Student Mappings\n    mapping (uint => studentinfo)  student; \n    uint studentkey = 0; \n\n//*****************Structs ******************\n    //employee structs \n\n    struct employeeinfo{\n    \n        string employeename;\n        string employername;\n        string employeedesignation;\n        string employeetenure; }\n    \n    struct studentinfo{\n        \n        string studentName;\n        string program;\n        string duration;\n        string graduationtime; }\n        \n///*************Events ******************\n\nevent employeeadded(address ,employeeinfo); \nevent studentadded(address ,studentinfo); \nevent searchemployee(address,employeeinfo);\nevent searchstudent(address,studentinfo);\n        \n//********************************Functions ***************************\n\n//******************************Employee functions********************* \n\n\n//******************* Adding Employees ****************************\n    \nfunction addemployeeinfo( string memory _employeename, string memory _employername, string memory _employeedesignation, string memory _employeetenure) public {\nrequire(bytes(_employeename).length > 0  && bytes(_employername).length > 0 && bytes(_employeedesignation).length > 0 && bytes(_employeetenure).length > 0 , \"Cannot pass empty strings\");\n    employee[employeeKey] = employeeinfo(_employeename, _employername, _employeedesignation, _employeetenure);\n    instance.transferFrom(owner,msg.sender, 1*10**18);\n     emit employeeadded(msg.sender, employee[employeeKey]); \n    employeeKey++; }\n   \n\n//********************Finding Employee******************************\n\nfunction findemployee(uint empKey) public  returns(employeeinfo memory){\n    require (instance.balanceOf(msg.sender) >=5*10**18 , \"insufficinet balance\");\n     instance.transferFrom(msg.sender,owner,5*10**18);\n    emit searchemployee(msg.sender,employee[empKey]);\n    return employee[empKey]; \n    }\n\n\n//********************************Studnet function************************* \n\n//******************adding student *******************\n        \nfunction addstudent(string memory _studentName, string memory _program, string memory _duration, string memory _graduationtime) public {\n    student[studentkey] = studentinfo(_studentName ,_program, _duration, _graduationtime); \n     instance.transferFrom(owner,msg.sender, 1*10**18);\n     emit studentadded(msg.sender, student[studentkey]); \n    studentkey++; }\n    \n\n//****************************finding students**************************\n    \nfunction findstudent(uint studentId) public  returns(studentinfo memory){\n    require (instance.balanceOf(msg.sender) >=5*10**18 , \"insufficinet balance\");\n     instance.transferFrom(msg.sender,owner,5*10**18);\n     emit searchstudent(msg.sender,student[studentId]); \n    return student[studentId]; }\n}\n",
  "sourcePath": "/home/ubuntu-ac/Desktop/dCHeckProject(final)/contracts/dCheck.sol",
  "compiler": {
    "name": "solc",
    "version": "0.7.4+commit.3f05b770.Emscripten.clang"
  },
  "schemaVersion": "3.3.3",
  "updatedAt": "2021-04-12T23:07:03.808Z",
  "devdoc": {
    "kind": "dev",
    "methods": {},
    "version": 1
  },
  "userdoc": {
    "events": {
      "employeeadded(address,(string,string,string,string))": {
        "notice": "*************Events ******************"
      }
    },
    "kind": "user",
    "methods": {},
    "version": 1
  }
}